:020000040000fa
:080000000001040000000000f3
:020000040000fa
:0400080012020000e0
:020000040000fa
:04000c0012020000dc
:020000040000fa
:0400100012020000d8
:020000040000fa
:0400140012020000d4
:020000040000fa
:0400180012020000d0
:020000040000fa
:04001c0012020000cc
:020000040000fa
:0400200012020000c8
:020000040000fa
:0400240012020000c4
:020000040000fa
:0400280012020000c0
:020000040000fa
:04002c0012020000bc
:020000040000fa
:0400300012020000b8
:020000040000fa
:0400340012020000b4
:020000040000fa
:0400380012020000b0
:020000040000fa
:04003c0012020000ac
:020000040000fa
:0400400012020000a8
:020000040000fa
:0400440012020000a4
:020000040000fa
:0400480012020000a0
:020000040000fa
:04004c00120200009c
:020000040000fa
:040050001202000098
:020000040000fa
:040054001202000094
:020000040000fa
:040058001202000090
:020000040000fa
:04005c00120200008c
:020000040000fa
:040060001202000088
:020000040000fa
:040064001202000084
:020000040000fa
:040068001202000080
:020000040000fa
:04006c00120200007c
:020000040000fa
:040070001202000078
:020000040000fa
:040074001202000074
:020000040000fa
:040078001202000070
:020000040000fa
:04007c00120200006c
:020000040000fa
:040080001202000068
:020000040000fa
:040084001202000064
:020000040000fa
:04008800c8010000ab
:020000040000fa
:04008c00120200005c
:020000040000fa
:040090001202000058
:020000040000fa
:040094001202000054
:020000040000fa
:040098001202000050
:020000040000fa
:04009c00120200004c
:020000040000fa
:0400a0001202000048
:020000040000fa
:0400a4001202000044
:020000040000fa
:0400a8001202000040
:020000040000fa
:0400ac00120200003c
:020000040000fa
:0400b0001202000038
:020000040000fa
:0400b4001202000034
:020000040000fa
:0400b8001202000030
:020000040000fa
:0400bc00120200002c
:020000040000fa
:0400c0001202000028
:020000040000fa
:0400c4001202000024
:020000040000fa
:0400c8001202000020
:020000040000fa
:0400cc00120200001c
:020000040000fa
:0400d0001202000018
:020000040000fa
:0400d4001202000014
:020000040000fa
:0400d8001202000010
:020000040000fa
:0401080012020000df
:020000040000fa
:04010c0012020000db
:020000040000fa
:0401100012020000d7
:020000040000fa
:0401140012020000d3
:020000040000fa
:0401180012020000cf
:020000040000fa
:04011c0012020000cb
:020000040000fa
:0401200012020000c7
:020000040000fa
:0401240012020000c3
:020000040000fa
:0401280012020000bf
:020000040000fa
:04012c0012020000bb
:020000040000fa
:0401300012020000b7
:020000040000fa
:0401340012020000b3
:020000040000fa
:0401380012020000af
:020000040000fa
:04013c0012020000ab
:020000040000fa
:0401400012020000a7
:020000040000fa
:0401440012020000a3
:020000040000fa
:04014800120200009f
:020000040000fa
:04014c00120200009b
:020000040000fa
:040150001202000097
:020000040000fa
:040154001202000093
:020000040000fa
:04015800120200008f
:020000040000fa
:04015c00120200008b
:020000040000fa
:040160001202000087
:020000040000fa
:040164001202000083
:020000040000fa
:04016800120200007f
:020000040000fa
:04016c00120200007b
:020000040000fa
:040170001202000077
:020000040000fa
:040174001202000073
:020000040000fa
:04017800120200006f
:020000040000fa
:04017c00120200006b
:020000040000fa
:040180001202000067
:020000040000fa
:040184001202000063
:020000040000fa
:04018800120200005f
:020000040000fa
:04018c00120200005b
:020000040000fa
:040190001202000057
:020000040000fa
:040194001202000053
:020000040000fa
:04019800120200004f
:020000040000fa
:04019c00120200004b
:020000040000fa
:0401a0001202000047
:020000040000fa
:0401a4001202000043
:020000040000fa
:0401a800120200003f
:020000040000fa
:0401ac00120200003b
:020000040000fa
:0401b0001202000037
:020000040000fa
:0401b4001202000033
:020000040000fa
:0401b800120200002f
:020000040000fa
:0401bc00120200002b
:020000040000fa
:0401c0001202000027
:020000040000fa
:0401c4001202000023
:020000040000fa
:0401c800120200001f
:020000040000fa
:0401cc00120200001b
:020000040000fa
:0401d0001202000017
:020000040000fa
:0401d4001202000013
:020000040000fa
:0401d800120200000f
:020000040000fa
:100200008f8920000eff20000e01880000000000f2
:10021000000020000000e000020032000001200089
:100220002002880014000700ab0107000000e00076
:1002300003003a00e04021000100200002003700e6
:100240000000200001002000810f7000010032003a
:1002500014000700000020000000e000020032004f
:100260000000020000000000441302000000000033
:100270000040da000000fe004440a900a00e20006b
:100280000000e0000300320000002000a001880010
:100290004440a800000006008a1f78008b1f7800e9
:1002a0000000060091018800800478000000eb0047
:1002b0001a003700e284440032a0b4009905ba0065
:1002c000e284440032a0b4009906ba00e2844400fb
:1002d00032a0b4000006eb00476fde00fd07b2005d
:1002e000636ce10003003a00ebff07000000eb0045
:1002f0000a003700606ce10004003a00005deb008a
:100300008b05e900fdff3e00040037006168e10055
:10031000010032000086eb000b00070019c7ba008d
:100320001905ba000e04e00003003a000a00e000dc
:10033000e0ff3a0000000600fe07b2009e018800c0
:100340008a047800f5ff3700395dba008b05e900b3
:100350000c003200295dba008b05e900080032006c
:100360000c00e00003003a00e284440032a0b40034
:10037000f5ff370019ddba008b05e900faff3a00f6
:100380008904e800e184440032a0b40000000600c3
:100390003600f800809fbe00829fbe00849fbe0092
:1003a000869fbe000200fa008700a9003a010700fc
:1003b000004f780030c7b3009e40780080cf5000d7
:1003c00005003a0010c0b30014e8b70010c0b30035
:1003d00015e8b7000700370050c6b3009e4078000c
:1003e00080cf500003003a001468ef0020c0b30033
:1003f00015e8b700c0108000620060000000e00057
:10040000010032001822a9000080fa004f03be004c
:100410004f02be004f01be004f00be003600f90083
:10042000004006000040da000000fe000a00fa006a
:10043000e20f500034003e00b0448000e10f500055
:1004400003003200e20f500011003a000c003700a8
:10045000c32020000300e00001003a000040da0061
:100460000c02e200020035001422ef000de2a800a9
:100470000f42ab000d003a000f42a8000b003700fe
:10048000632120000300e00001003a000040da0090
:100490001602e200020035001e22ef0017e2a8005b
:1004a0001942ab0001003a001942a800820178000d
:1004b0000b0037003102fb00e10f500004003a004e
:1004c0000f22ab00feff3a008410880003003700c3
:1004d0001922ab00feff3a00d41088008301e90026
:1004e0000300e000f3ff3a00e10f500003003a0080
:1004f0000f02ab00feff32000b0037001902ab0009
:10050000feff32000800370033002000b3bf9f0019
:10051000c0bf9f00d1bf9f00e2bf9f006a8057000d
:10052000690507006fb99700020078000080fa00a3
:100530000000060000158000610060000000a200bd
:10054000000006008d60a900a1e2a9008560a90055
:10055000000006008560a900e7006000f2ff2800a7
:10056000cc08dd00c3048000030161006800600066
:10057000028170004300de00c20488006100600058
:10058000f17f2f004b00dd0062048000828060005c
:100590008100700061048800000006004315880097
:1005a00054158800e20160002215880011158800aa
:1005b00000158800d0ff2f00a002b6000080710057
:1005c0000015880000000600012820000080fb00c4
:1005d000000040006100780000000600301588002f
:1005e000000006008c60a90005e1a9008460a90054
:1005f000000006008460a900e7006000f2ff280008
:10060000cc08dd00a30480000301610068006000e5
:100610000281700071ff2f00a20488006204800034
:100620008280600081007000610488000000060084
:100630000021ef0011088800200888000000060053
:10064000001020000e02b6000000e9004f00de009e
:10065000000006000de2a9008d20a9008d40a90030
:100660008520a9008540a9000000060017e2a90026
:100670008f00a9008f20a9008700a9008720a9006a
:10068000000006008520a900e70060008540a90061
:10069000c408dd0000017800f3f82f000207b20063
:1006a000c4048000848161004411dd0083817000f6
:1006b000e8006000c3048800c308de00f38f2f0049
:1006c000e1806000c404800084816100c908dd000d
:1006d000830171000008b200c3048800f2df2f001c
:1006e0004700de00630480000301610061006000d8
:1006f000028170004a00dd0062048800f1bf2f0013
:1007000064048000848060008100700061048800bf
:10071000000006008700a900e70060008720a9000c
:100720000001780083ff2f000207b200040580005b
:100730008481610083817000e80060000305880007
:10074000c308de00f3f82f00e1806000040580009c
:1007500084816100c808dd00830171000008b200d7
:1007600003058800f2ef2f004700de0073048000cd
:100770000301610061006000028170004900dd003a
:1007800072048800f1df2f00740480008480600010
:100790008100700071048800000006007010800065
:1007a0006140600000000600c010800061406000f1
:1007b00000000600a21088006010880071108800f8
:1007c00000000600f2108800b0108800c1108800f8
:1007d0000000060061108000e6806000e68f500097
:1007e0000c003a00030037000f22ab00feff3a0076
:1007f00081108800b00078000100e000faff3a00a4
:10080000000006000f22ab00feff3a008100fb0053
:1008100081108800b04078000104e000f9ff3a0040
:1008200000000600b1108000e6806000e68f5000f6
:100830000c003a00030037001922ab00feff3a001b
:10084000d1108800b00078000100e000faff3a0003
:10085000000006001922ab00feff3a008100fb00f9
:10086000d1108800b04078000104e000f9ff3a00a0
:10087000000006006010800066006000e60f500077
:1008800002003a00901080000000060090108000e6
:10089000f00fb20000000600b0108000660060009b
:1008a000e60f500002003a00e01080000000060051
:1008b000e0108000f00fb200000006006110800020
:1008c000e6806000e68f500001003200f00fb200b9
:1008d000801088000000060000000500889fbe0010
:1008e0008a9fbe008c1f7800960007009d00330091
:1008f00003866c006450e1002e0032006420e100a9
:10090000330032006150e1002f0032006120e1002d
:100910003100320085855500eb07b000090020004a
:1009200008042000050037000804440089844c00b6
:100930000a0031000603430087834b000001530087
:1009400081815b00f8ff33000203be000800a000b5
:100950000804440089844c00f6ff3900c639dd00e4
:100960008301730001003200130020008904d100cc
:100970000884d3000998a300050032000800a700ee
:100980000300a0008904d1000884d3008b05e8008f
:100990008904d1000884d3000001eb000281d20059
:1009a0002d00070001f0a1000cf0a70001f0a0004d
:1009b000750037006420e100770032000801be00b6
:1009c0000200be00f7ff37006120e1007200320034
:1009d0006000b800f3ff37000000200001f8270096
:1009e000f0ff37000001be00410007000470a700bf
:1009f00003f0a10003f8a30013003a006509b10059
:100a000010003200090035006928e10002003500bd
:100a1000010028000000050000004000818048001f
:100a20008502e900fcff3a0000000600f88f420052
:100a3000050035008100d1000080d3008502e80068
:100a4000fcff3a00000006008000eb0000000500fb
:100a50006011b800870037008100200061805500d8
:100a60000b003d000b00200061fe2f000100e100a3
:100a70001d00340082817100610164008904d1008d
:100a80000884d3000000e800faff3a00710020005b
:100a90006100640003007000020060000900320081
:100aa00061044400e0844c000988a5000500320080
:100ab0008b05e8006808e10002003a008904d100d3
:100ac0000884d300f20f20000258e10005003d0029
:100ad000c75ddd00f907b200898075000800780065
:100ae000000006000bf827008b00780000000500ce
:100af000c70ade00f107b200f50fb20008003200ad
:100b0000e1cf4200020032000170a0002400050085
:100b1000810f700001003200040805004400050048
:100b2000810f700002003a00140005008502e90000
:100b30000000400081c04800fcff3b000170a000a5
:100b4000240005000004be00e9ff07000003be000a
:100b50000405be000200be00e5ff0700844f7500db
:100b6000000006000200be006450e10005003600ef
:100b70006420e100020036000968a30001003a0089
:100b80000800be000160a0004f0678004f05be00bf
:100b90004f04be0000000600f0ff2f00f1ff270009
:100ba000f9ff3700889fbe008a9fbe008c1f780027
:100bb000e4ff0700ebff330003866c006450e100a4
:100bc000240032006420e100270032006150e1007f
:100bd000220032006120e100210032008b854200ba
:100be000eb07b1000134b800003ab8000804420035
:100bf00089844a00013ab8000030b800888040007b
:100c000009014a00040033000000400081804800d0
:100c1000020149008b05e900c909dd00830170006c
:100c20000100320013002000c814de004814dd006b
:100c30004709de001200b200c808de000884700018
:100c400085ff070001f0a1000cf0a70001f0a00053
:100c5000cdff37006120e100cfff32000801be0068
:100c60000200be00f7ff37006150e100fcff3a00d0
:100c7000c9ff3700889fbe008a9fbe0000827000b7
:100c80000402710004827100260032000004be00dc
:100c90000200be006011b8006b0920009502200020
:100ca0000182cf000a0039000541b1000082cf0067
:100cb000070039000541b1000982cf000400390066
:100cc0000541b1000882cf00010039000541b100a3
:100cd00005425200120032000a003b00828171007e
:100ce000610164008100d1000080d3008984d300b9
:100cf0000884d3008b05e8000442e800f7ff3a00bf
:100d0000070037000804440089844c0000004800b4
:100d1000818048008b05e9000442e900f9ff3a00b0
:100d20004dff07004f05be004f04be000000060047
:100d300080007800010078003041780003c2b300e1
:100d4000834f5100faff3200e94f5100f8ff3200a3
:100d5000edc14100834f510003003a00800078004c
:100d600013c0b300050037008041eb00b4c2b300ec
:100d7000844f510001003a00800078000000eb0031
:100d8000020037006a02b900040041003101fb0093
:100d90000203b100e90f5100faff36000304e0003e
:100da000010032000000ea00000006000c00fa001a
:100db000889fbe0000047800f0ff2700d0bf9f008e
:100dc0008004eb0099bf9f0088bf9f00a8bf9f00d1
:100dd000200c2000b0bf9f0078815700cfb0970053
:100de00070805700100007000fb89700094878007e
:100df0008fb89700088050004f04be000080fa00b2
:100e000000000600d0019000028151004240a9007c
:100e10000300340010017800014978000208e8005e
:100e20000100780000000600f6874700889fbe009a
:100e30008a9fbe008c9fbe008e1f78000005780040
:100e4000a1b79f00020778008004eb0090023700f2
:100e5000afb097008100e800a1b79f0051c2b30076
:100e6000814f500003003a00afb097000004eb0040
:100e700011003700ba0090000000fb000168a300d9
:100e80000700320009017800800078000a0078002d
:100e9000dcff07000000e00005003a007c0237009c
:100ea0008a00780086020700e10f400078023200d5
:100eb0008904e800760237000100780031417800ab
:100ec000d3c2b300834f51000c00320007003c0036
:100ed000edc15100834f51000a003200ebc14100c7
:100ee000834f51000d003a000800370003c3b300e0
:100ef000834f510009003a00060037000830a00077
:100f0000edff37000800a000ebff37000810a0003d
:100f1000e9ff37000820a000e7ff37000818a3000a
:100f2000010032000800a1000838a30001003200cf
:100f30000820a1008200fb000103b100e98f5000ee
:100f40000c003e00000178008000eb006a08b90048
:100f5000b201fb000303b100808041000200780071
:100f60009201fb000303b100e98f5100f7ff360047
:100f7000060037008000eb00a3c2b300834f51008e
:100f800002003a00ce0078000000e8008005eb0087
:100f9000e2c2b300904f110009003a0008e0a0003f
:100fa00064415100d04f110003003200000178006d
:100fb0000102780006003700ce0578000000e80046
:100fc00000017800090037006a58b90080854100a7
:100fd00002007800b201fb000303b100e98f510069
:100fe000f9ff360084007800f5ff370032407800c2
:100ff000a2b79f00c3c6b300834f50002500320044
:101000000f003c0032c6b300824f5000880032000f
:1010100004003c000004e000220232006b41510059
:101020000f00370042c6b300824f50001700320055
:1010300065414100824f500094003a001300370090
:1010400032c7b300824f50001b00320007003c0043
:1010500064415100824f5000100032000241e8000c
:10106000824f500089003a000f00370052c7b3008a
:10107000824f50008a00320063414100824f50008d
:1010800082003a00e0df9f0009003700e0df9f00a8
:10109000850037000840a000d4ff3700e0df9f0044
:1010a0000860a00080003700e0df9f000850a0002b
:1010b0000870a0007c003700e0df9f004e00780041
:1010c000000678000000e00001003a00ac83200038
:1010d0000c0178000000eb00010037000000e80080
:1010e000e24178000304e000fcff3a00800678004b
:1010f0000b00e000030032008d8f5500010031002d
:101100008b0678008005eb008d8f500001003600c3
:101110008d855000680464002a003a0011003700f1
:101120003a0090000068a30007003200090178002f
:10113000010220000a00780032ff07000000e000f2
:1011400006003a00060037008a00780000022000fe
:10115000db010700e10f4000010032008904e800d4
:101160008b05e9000b00e000edff3a008085eb0005
:10117000140037003a0090000068a3000900320014
:101180000c007800b000fb00000678000901780030
:101190000a0078001bff07000000e00008003a008a
:1011a000080037008c0078003100fb000106780051
:1011b0008a007800c2010700e10f40000100320000
:1011c0008904e8000d0078008006e9000000e000d6
:1011d000e8ff3a000800e000ad01320011003700de
:1011e0003a0090000068a30007003200090178006f
:1011f000010220000a00780002ff07000000e00062
:1012000006003a00060037008a007800000220003d
:10121000ab010700e10f4000010032008904e80043
:101220008b05e9000b00e000edff3a009801370064
:101230004e017800cf91de00c81ade004818dd00ac
:101240004812de0004027000e4df9f000848a3009b
:10125000080032000404e00006003200e14f4200c2
:1012600004003200f4df9f0082e79f002d00200081
:1012700002003700f2df9f001d002000e2fd2f007a
:101280000f0141000206e80099ff3700e0df9f00f0
:10129000ecfd2f000f0646001d00200094ff3700d4
:1012a000e0df9f00080cb30008017800020cb200d8
:1012b000700064000200e0000d003a000000e00051
:1012c000020032004e06be00020037004e067800d3
:1012d000cfe6de00e00f5600e08f5e000a003d0022
:1012e0003800b30060061600e0861e0006003700d6
:1012f0000000e000020032004e06be00020037008f
:101300004e0678008006eb000b00e00005003a0076
:101310008c8576000bf0a7008b05ea008b05e900b1
:10132000cf5dde0088017800030cb200e3b79f00b8
:1013300000042000808f51002300320003003c0095
:101340000300e000080032002d00370000082000f4
:101350006fb29700800f52000d003200000c200089
:10136000800f520026003a002284200010c0b300f3
:1013700064014100b20f5600a28f5e001f003900c9
:101380000040e800ea4f5000f9ff3a001b00370028
:1013900010c0b3000201200003002000820f56009d
:1013a000838f5e0015003900441add00cc11de0089
:1013b000830172004411dd000040e800e84f500056
:1013c000f6ff3a000d00370010c0b3008200200085
:1013d00003002000820f5600838f5e000700390053
:1013e000431add00cd11de00830172004311dd00e0
:1013f0000040e800eb4f5000f6ff3a00e0df9f00ae
:101400006fd997000200fb008b0f500002003d00d7
:10141000ebdf9f0003003700808f550001003d0087
:10142000800578000100e0000300320063006400e2
:10143000010032008100e90008e8a3000500320045
:101440008b8f5000020034008b8050000100370069
:101450008000eb00efd997000300fb000002eb00d7
:10146000d4b79f00808f50000200340000805000ed
:10147000d0b79f000828a30040003200610164003b
:101480000818a3000f0032003a0090000068a30083
:1014900006003200b10220000200e000010032002c
:1014a0008180e800090178000d003700b0022000bb
:1014b0000200e000010032000080e8008a007800ad
:1014c0000e0037000200e000100032003a009000e9
:1014d0000068a30007003200090178000102200023
:1014e0000a00780047fe07000000e00006003a000e
:1014f000060037008a00780000022000f000070094
:10150000e10f4000010032008904e8005fb097005d
:101510000000e0005a003200bcb79f00cdb79f002a
:10152000800678003a0090000068a30007003200af
:1015300009017800010320000a00780031fe07004d
:101540000000e00006003a00060037008a0078003c
:1015500000032000da000700e10f40000100320024
:101560008904e8008d06e900eeff3a00ddb79f0030
:101570003fb69700cfb6970041003700dfb1970024
:101580000300e0001a0032000838a30018003a00f7
:10159000bcb79f00cdb79f00830678003a0090004b
:1015a0000068a30007003200090178000102200052
:1015b0000a00780013fe07000000e00006003a0071
:1015c000060037008a00780000022000bc000700f7
:1015d000e10f4000010032008904e8008d06e900b7
:1015e000eeff3a00ddb79f003fb69700cfb69700f9
:1015f000610164000818a3000f0032003a00900057
:101600000068a30006003200b10220000200e000e2
:10161000010032008180e800090178000d003700e8
:10162000b00220000200e000010032000080e8006b
:101630008a0078000e0037000200e000100032003f
:101640003a0090000068a30007003200090178000a
:10165000010220000a007800eafd07000000e00017
:1016600006003a00060037008a00780000022000d9
:1016700093000700e10f4000010032008904e800f8
:101680000b03e9006330b90000017800b2b79f0096
:101690004233dd0020842000000343008e017800e7
:1016a00093b79f0008077800060478005c003700b5
:1016b0008b05e900000420006fb29700800f5200f4
:1016c0003800320003003c000400e0000800320053
:1016d0003e00370000082000efb09700808f5000d8
:1016e00020003200000c2000808f500037003a00ac
:1016f0000e48a300100032001802be000401be0014
:101700000c00be00f4b79f0085bf9f00f0000700eb
:10171000e0df9f000000fb00cf80de007fb297007b
:101720008fba97000401be00f900070000065600ba
:1017300081865e000700370018017800110009005b
:101740000286d800a2002000110009000280d80003
:10175000e1df9f006fd997000243b000e2df9f00f6
:101760001a003700908220000e58a30001003200ba
:101770008081200021842000810054000c01be00e3
:101780008100e900030033008301d1000281d3000e
:10179000fbff3700ef006100e0c07800e1df9f0051
:1017a0000a0037000c00be00bfb197008301e900ba
:1017b000030033008100d1000080d300fbff37001d
:1017c000674060000043b000e0df9f00ba00900077
:1017d0006fda97000400fb000168a30007003200e5
:1017e00009017800800078000a00780085fd070074
:1017f0000000e00005003a00050037008a0078008c
:101800002f000700e10f4000010032008904e800ca
:101810003fb0970063005000b0b79f0064045400cd
:101820000b00e000a2ff3a000e0478001fb79700fb
:101830000838a30016003200dfb097000100e00076
:1018400013003400010478003a0090000068a300ff
:101850000700320009017800010220000a00780028
:1018600068fd07000000e00006003a0006003700af
:101870008a0078000002200011000700e10f4000fc
:10188000010032008904e8000804e900eeff3a0094
:101890002fb1970012407800e0df9f000004e000c5
:1018a0006bfd3a00090078004f0778004f06be0034
:1018b0004f05be004f04be006f01b10000000600de
:1018c000889fbe0001047800b80090008084eb007f
:1018d0000118a3003a003200180190000198a300fb
:1018e00002003a000200e00035003a000190a0003a
:1018f0003104980080047800f90fb2000200e00083
:1019000002003a0028009000000c7800ea8f540092
:1019100005003a000178a30003003a00880078002f
:10192000d0002000e6ff070018009000d8009000cb
:10193000810f50000b0032000000e80010049800f6
:101940001800780009487800000ce80011c0b300c6
:101950000089200001487800ea8f540018003a00fe
:10196000050037008800780009407800170007005c
:101970008004780012003700380090000088a3002f
:101980000f00320018019000a8009000480090005d
:10199000a6fa070098009000810f50000400320062
:1019a000380090000003b300300498008084eb00fe
:1019b0000000eb001004980028009000000c780054
:1019c000090078004f04be00000006000200fa0083
:1019d000889fbe00a0ff9f0001047800380090009f
:1019e0000068a30033003a00e200600005003a00fe
:1019f0000003b30030049800110498000080eb004d
:101a00002e003700d80490000900e00006003a00dc
:101a100012002000e68057004800900083fa07007b
:101a20001904980023003700a80090000100e0008e
:101a300008003a003189200021049800010c780048
:101a40002100200051049800110498000030a000eb
:101a50003004980018019000a80090004800900001
:101a600072fa0700280090008080eb0011049800b3
:101a7000aff8970001487800000ce8002ff89700b5
:101a8000ea4f50000b003a00380090000088a30095
:101a90000800320018019000a80090004800900053
:101aa00062fa07000000eb0010049800a800900004
:101ab000010c7800aff897000100fb004f04be0056
:101ac0000080fa000000060000c0da0000000600f6
:101ad0006022b800060220000000d0008180d20001
:101ae0000482d2008582d2000000a00002025200cf
:101af00083825a00030031000202420083824a00be
:101b00000000a1000603e900f3ff3a000000060010
:101b1000020ab900001bb9000200b80081004200af
:081b20008100430000000600f3
:020000040000fa
:101b28007265000061640000205700004c4100000d
:101b38004e2e000074780000742000003237000038
:101b48000d00000072650000616400002043000081
:101b58004f5500004e5400002e74000078740000a9
:101b6800200d000000250000640000003b0000007c
:101b78000d000000726d0000204300004f5500006a
:101b88004e5400002e540000585400000d00000070
:101b980061700000706500006e6400002043000062
:101ba8004f5500004e5400002e54000058540000b9
:101bb8000d00000061700000706500006e64000098
:101bc80020460000494c0000450000002e5400004b
:101bd800585400000d000000416e0000616c0000c8
:101be800697a0000616400006f72000020640000e0
:101bf80065200000766900006272000061630000e1
:101c0800696f00006e650000732000000046000048
:101c1800492d000055410000454d00006578000041
:101c28000a000000434f00004e540000454f0000da
:101c38003b4500004a450000583b0000454a00006b
:101c4800455900003b4500004a4500005a0d000078
:101c58000a000000446f00006d6900006e67000014
:101c68006f200000004c0000756e000065730000d6
:101c78003a200000004d0000617200007465000009
:101c8800733a0000200000004d690000e97200006e
:101c9800636f00006c650000733a000020000000cc
:101ca8004a75000065760000657300003a20000060
:101cb8000056000069650000726e00006573000040
:101cc8003a20000000530000e16200006164000057
:101cd8006f3a0000200000002f00000020200000c4
:101ce800003a0000000a0000000000002d0000007b
:041cf80020000000c8
:020000040000fa
:101cfc007800fa0040d92800ac0307000e007800e9
:101d0c0021000700800220000e0040001e0007008a
:101d1c000e00780054000700800220000e004000e6
:101d2c005100070000242400f1002000b803070034
:101d3c0060da28009d030700000520000e0040001b
:101d4c0011000700000520000e00400046000700af
:101d5c0000242400f1002000ad03070080022000c5
:101d6c000e004000800078000e0078004903070048
:101d7c00000520000e004000eafb0700b040880080
:101d8c000080fa00000006000400fa00100798001a
:101d9c000040eb00004f78001000370000000000fe
:101dac007bfa07000004e000fdff3200aefa0700ea
:101dbc00004f780020c2b3009e40780080cf5000c6
:101dcc0006003a001e00900021c2b30001487800c2
:101ddc001e0090000000e8001007980020c2b3001d
:101dec009e40780080cf5000ecff3a0000000000cd
:101dfc0067fa07000004e000fdff32009afa0700c2
:101e0c00104798009e409000e0c3b30080cf500074
:101e1c0002003a000040eb00110037009e40900099
:101e2c0020c2b30080cf500005003a001e00900085
:101e3c0021c2b3000148780010c0b300080037007d
:101e4c001e0090009e409000014878001e009000fb
:101e5c000000e8001007980000000000e4ff3700c5
:101e6c000080fa00000006000400fa001007980039
:101e7c0010c0b300004f78000c0037001e00fb00b0
:101e8c009e00900000804000904078001147980020
:101e9c001e00fb000000e9009e0090000080400046
:101eac009e409000014878001e4fe8001e00fb0089
:101ebc009e009000008040009040780020c2b3004b
:101ecc0080cf5000edff3a00070037001e00fb00ea
:101edc000000e9009e009000008040008040eb0074
:101eec00014878001e4fe80070c2b3009e40780095
:101efc0080cf5000f5ff34000080fa00000006008f
:101f0c001a00fa00100f9800210f9800320f980059
:101f1c00430f98009e08900051079800ae0890005f
:101f2c0061079800be08900071079800ce089000d9
:101f3c00010f98000000eb00000f78001a0037002a
:101f4c001e00780000004000ea00470000804000be
:101f5c00900078000e80e800811f780071db28006b
:101f6c00811f78008efb0700e48757000e80e80085
:101f7c000e03070000000000aef907000004e000ab
:101f8c00fdff3a001e007800e20f500003003e00f7
:101f9c00a0db28000503070002003700c0db280087
:101fac00020307001e0fe8001e007800e30f50002c
:101fbc00e3ff36000080fa00000006000200fa0081
:101fcc0029fa0700c0db2800f80207000040eb00ec
:101fdc00004f78000600370000242400f100200098
:101fec000b030700a001200031fa07001e4fe80088
:101ffc001e407800e24f5000f7ff3400002424000c
:10200c00f1002000020307000080fa000000060027
:10201c000600fa00b04080000000e800b0408800e4
:10202c00b0408000801f780070db2800801f780093
:10203c000e0078005afb0700e4875700dfff07000b
:10204c00e0db2800d902070000242400f100200066
:10205c00ef020700e0db2800d40207000024240074
:10206c00f1002000ea020700c0dc2800cf020700c4
:10207c0000242400f1002000e502070020022000cb
:10208c000bfa07000e007800c8020700200220009f
:10209c0007fa0700c9ff0700e0dd2800c3020700ac
:1020ac000e007800c1020700a0de2800bf02070066
:1020bc0000df2800bd020700b0e02800bb020700cb
:1020cc000400070060e12800b80207000080fa0055
:1020dc00000006000400fa00a0c8b300b10007001d
:1020ec000000fb00e40f500019003200e40f500018
:1020fc0007003c00e20f50000f003200e20f5000ce
:10210c0010003c00e10f5000080032001c003700aa
:10211c00e60f500014003200e60f50000f0035009f
:10212c00e70f50001300320015003700e0e22800e2
:10213c009e0207001200370070e328009b02070084
:10214c000f003700f0e32800980207000c0037005e
:10215c0080e42800950207000900370040e52800bc
:10216c009202070006003700d0e528008f02070016
:10217c000300370070e628008c0207000000000006
:10218c0060c8b300870007000000fb00801f7800c8
:10219c0070db2800801f78000e00780000fb070021
:1021ac00e48757000e0078008002070000e7280043
:1021bc007e02070080c8b3007a0007000000fb0015
:1021cc00801f780070db2800801f78000e007800dc
:1021dc00f3fa0700e48757000e007800730207003b
:1021ec0000e7280071020700c0c8b3006d000700ab
:1021fc000000fb00801f780070db2800801f780037
:10220c000e007800e6fa0700e48757000e0078000d
:10221c006602070020e728006402070040c8b300ec
:10222c00600007000000fb00801f780070db2800b6
:10223c00801f78000e007800d9fa0700e487570059
:10224c000e0078005902070050e7280057020700db
:10225c0020c8b300530007000000fb00801f78006b
:10226c0070db2800801f78000e007800ccfa070085
:10227c00e48757000e0078004c02070050e7280056
:10228c004a02070000c8b300460007000000fb002c
:10229c00801f780070db2800801f78000e0078000b
:1022ac00bffa0700e48757000e0078003f020700d2
:1022bc0070e728003d0207000080fa0000000600cd
:1022cc000000fa00c742a900c762a900c782a90092
:1022dc00cb42a900cb62a900cb82a9000080fa00f6
:1022ec00000006000800fa0020079800310798004b
:1022fc003e009000c800dd002e0090000100700030
:10230c0010079800c762a900cb82a80040012000ea
:10231c00010020003e0207000040eb00004f780057
:10232c00180037001e00fb009e0090000088de00a5
:10233c0000407800614060006140600061406000d6
:10234c000080fb00610060004b00dd005216800035
:10235c00f17f2f0081006100010070005016880091
:10236c00000520000100200029020700cb42a80034
:10237c00000520000100200025020700cb42a90027
:10238c001e4fe8001e407800ef4f5000e5ff340070
:10239c00cb42a900cb62a900cb82a9000080fa0035
:1023ac00000006000c00fa00204f98000040eb00e3
:1023bc00004f78002e4890000040e800204f980015
:1023cc00c762a900cb82a8004001200001002000b8
:1023dc000f0207000040eb00104798002e0037005a
:1023ec001e409000e84f500001003a00c762a80060
:1023fc001e409000e74f500011003c002e4890000a
:10240c008000fb001e4090000000fb000088de00f6
:10241c0000407800614060006140600061406000f5
:10242c000080fb00610060004b00dd005216800054
:10243c00f17f2f00810061000100700050168800b0
:10244c000005200001002000f10107001e40900053
:10245c00e74f5000080034001e4090000000fb00c5
:10246c006800500041168000cb08de00e1c060001f
:10247c000000470021409800cb42a8000005200036
:10248c0001002000e2010700cb42a9001e40900091
:10249c000040e800104798001e409000ef4f50009d
:1024ac00cfff3400cb42a900cb62a900cb82a9009c
:1024bc0070c0b300104798000c0037001e40780025
:1024cc0000404000804078001e4090000000fb005f
:1024dc00000047002040900000c04000004f7800f2
:1024ec001e4090000040e900104798001e409000ec
:1024fc000004e000f1ff3d002e489000ae48900033
:10250c008140e900214f98009e40780004000700ac
:10251c00004f78001e4078000080fa000000060092
:10252c000400fa0020479800314798003e40900084
:10253c000000fb000000e00001003d006f004000c7
:10254c004480de00104798002e4090000000fb00f5
:10255c00be4090000f000700304798000040eb0091
:10256c00004f7800040037003e4090006640500059
:10257c00304798001e4fe8001e4090009e407800a7
:10258c0080cf5000f8ff35003e4090000080fa00ec
:10259c00000006000400fa00000f780021479800a4
:1025ac001e00780061082000810f500023003200cb
:1025bc0061082000810f50000a003c002108200017
:1025cc00810f50001500320041082000810f50008f
:1025dc001600320001082000810f50000b00320061
:1025ec0023003700a1082000810f50001b0032008f
:1025fc00c1082000810f50001c003200810820000f
:10260c00810f500011003200190037002e4090004d
:10261c000074a10020479800150037002e40900050
:10262c000074a10020479800110037002e40900044
:10263c007f406000204798000d0037002e4090002e
:10264c00f043b20020479800090037002e4090005c
:10265c007f40600020479800050037002e40900016
:10266c006740600020479800010037000000000020
:10267c002e4090000080fa00000006000a00fa00cc
:10268c000000eb00000f78001a010700d702a80029
:10269c00d1a2a80001003700000000000017800044
:1026ac00610060000000e0001200320014c8bf009e
:1026bc000004e0000f003a0010c0b30014e8b700ab
:1026cc0010c0b30015e8b70000d82800b1052000f1
:1026dc004f0107000000000000178000610060003f
:1026ec000000e000fcff3a0000902000d103200025
:1026fc004701070015c8bf00e14f50001e003a000b
:10270c001568ef0042fe07001c003700d1c2a8007c
:10271c0020c0b3002e0107001007980010c0b300b2
:10272c002b010700200798000040eb002801070050
:10273c003007980098000700400798001e007800aa
:10274c001e0fe800be0190002e0190009e0090002c
:10275c00ebfd0700ce00900040832000808f5000de
:10276c0002003e00d1a2a80001003700d1a2a900ae
:10277c008460a900010037000000000020048000e4
:10278c00680060000000e0000300320014c8bf00c5
:10279c000004e000ddff3a000017800061006000db
:1027ac000000e0001100320014c8bf000004e0007b
:1027bc000e0032001468ef0020c0b30015e8b7001b
:1027cc0000d82800b105200011010700000000000e
:1027dc0000178000610060000000e000fcff3a0080
:1027ec0000902000d10320000901070015c8bf008c
:1027fc00e24f5000a8ff3a0036fe07001568ef00c4
:10280c00d1c2a9000000eb00000f7800a3ff370035
:020000040000fa
:10281c001608000002000000000000000008000084
:10282c001600000000000000180800005200000014
:10283c0002000000303132003334350036373800b6
:10284c0039414200434445004600300031323300e8
:10285c0034353600373839006162630064656600d0
:10286c0000286e00756c6c0029000000010000004f
:10287c00000a00000000640000000000e8030000f3
:10288c00001027000000a0008601000040420f004d
:10289c000080960098000000e1f5050000ca9a003f
:1028ac003b0000006a080000260000000200000047
:1028bc0091080000009108000900000000020000cf
:1028cc0093080000009308000e02010000000000b5
:1028dc0000000000000000000602020000000000e2
:1028ec006a080000900800000600000000000000cc
:1028fc009608000002000000020000000100000029
:04290c0000000000c7
:020000040000fa
:102910000a00fa00f0cf2f00000f7800c0ff20005f
:102920001007980010372e002007980000c02f00d5
:10293000300798000080eb004007980001f707007f
:1029400070ff2f0003f707004e029000be019000b9
:102950002e0190009e0090001e0078000ff70700e7
:102960000080fa00000006000200fa00004f780024
:102970000000000000158000620060000000e00020
:10298000fcff3a0000000000eaf607000004e00047
:10299000fdff3a001e4078000bf707000080fa00a8
:1029a000000006000000fa0040c0b300eeff070080
:1029b0008000eb0026f8070062662600a31d2400b5
:1029c000c6f7070002002000031b240075f807006b
:1029d00004f80700000078000080fa0000000600fc
:1029e0000800fa0020f72f00000f780000b02f0039
:1029f00010079800d075270020079800400120009c
:102a00003007980019f707001e00780041f707000b
:102a10003e019000ae0090001e00900069f7070094
:102a20000080fa00000006000200fa00000f7800a3
:102a30001e0078007bf707000080fa000000060007
:102a40000200fa00000f78000000000001003700cb
:102a50000000000054f707000004e000fdff320012
:102a60008df70700804078001e007800014878004c
:102a70001e0fe8001e007800104078000004e000ff
:102a8000f3ff3a000080fa00000006000000fa00a0
:102a9000d322a900d722a9000080fa000000060076
:102aa0000400fa00000f780011079800d722a80050
:102ab00000202100a107200058000700a0e72800ff
:102ac000d9ff07001e007800d7ff0700a0e7280005
:102ad000d5ff0700c0e72800d3ff0700a0e72800c4
:102ae000d1ff07001e009000cfff0700a0e72800dd
:102af000cdff07000040eb000080fa000000060058
:102b00000000fa00c162a800c6a2a800cda2a900d8
:102b1000cdc2a900d302a900de02a800de22a800cf
:102b2000dec2a800d9ff070000102e00515f200070
:102b30003a00070076ff070046000700e3fd0700a4
:102b4000230007000a000700a5ff07006bfc070031
:102b500000a0250021262000300007008f00a800db
:102b600000fe2f009df607000080fa00000006001e
:102b70000800fa0070f72f00000f780000b02f0057
:102b800010079800d075270020079800400120000a
:102b900030079800aff607001e007800b9f607006e
:102ba0003e019000ae0090001e00900001f707006b
:102bb0000080fa00000006000200fa00000f780012
:102bc0001e00780003f707000080fa0000000600ee
:102bd0000000fa000080fa00000006000200fa007f
:102be000004f78001e4078005fff07008000eb0078
:102bf00097f7070062662600a31d240037f7070039
:102c000002002000031b2400e6f7070075f7070009
:0c2c1000000078000080fa0000000600c0
:020000040000fa
:102c1c00f03fb1000180b10006003500ee03090061
:102c2c0000000000403fb1000180b100fbff3d00ff
:102c3c001000b000203fb0000200350000800900f9
:082c4c0000000000000006007a
:020000040000fa
:102c54000400fa0090f92f00000f780010ff2f00f5
:102c6400100798005ef607001e00900060f607004b
:102c7400410d23001e0078006cf607000080fa0066
:042c84000000060046
:020000040000fa
:0200000401f009
:04000000f2bf00004b
:020000040000fa
:0200000401f009
:04000400ff7f00007a
:020000040000fa
:0200000401f009
:040008007eff000077
:020000040000fa
:0200000401f009
:04001400ffff0000ea
:020000040000fa
:0200000401f009
:04001800ffff0000e6
:00000001FF
